:020000040000FA
:100000000C9462000C948A000C948A000C948A0070
:100010000C948A000C948A000C948A000C948A0038
:100020000C948A000C948A000C948A000C94940519
:100030000C948A000C948A000C948A000C948A0018
:100040000C94F2040C948A000C9462050C943C0508
:100050000C948A000C948A000C948A000C948A00F8
:100060000C948A000C948A000000000023002600F3
:10007000290000000000240027002A0000000000E2
:10008000250028002B0004040404040404040202D4
:100090000202020203030303030301020408102007
:1000A0004080010204081020010204081020000012
:1000B0000008000201000003040700000000000027
:1000C0000000950611241FBECFEFD8E0DEBFCDBFE4
:1000D00011E0A0E0B1E0EAEAF6E102C005900D927D
:1000E000A636B107D9F722E0A6E6B1E001C01D921D
:1000F000AD33B207E1F710E0C2E6D0E004C02197CB
:10010000FE010E944D0BC136D107C9F70E94F206CD
:100110000C94530B0C940000CF92DF92EF92FF925D
:10012000DC01A03282E0B807D4F5A53BB10514F09C
:10013000A4EBB0E040913B0228E830E0241B3109F9
:1001400047FD3395220F331F220F331F6901330FF1
:10015000EE08FF0840913C0228E532E0241B3109FB
:1001600047FD3395220F331F220F331F032E000C40
:10017000440B550B2C193D094E095F09B7FF02C00E
:10018000B0E0A0E00E943E0924EB30E040E050E007
:100190000E941409C20ED31EE41EF51ED601E09182
:1001A0003A02EC3080F520913B0288E890E0821B17
:1001B000910927FD9395880F991F880F991FA817FC
:1001C000B90784F020913C0288E592E0821B9109F6
:1001D00027FD9395880F991F880F991FA817B907B6
:1001E0000CF4CD010297880F991F4FB7F8942E2F6A
:1001F00030E0F901EE0FFF1FE20FF31FEB5EFD4F42
:10020000928381834FBFFF90EF90DF90CF9008954E
:100210008F929F92AF92BF92CF92DF92EF92FF9216
:1002200080913C0258E5C52E52E0D52EC81AD1085F
:1002300087FDD394CC0CDD1CCC0CDD1C0D2C000CEC
:10024000EE08FF0880913B0278E8872E912C881AEF
:10025000910887FD9394880C991C880C991C092C93
:10026000000CAA08BB0880913A028F3FD1F190E0C0
:10027000FC01EE0FFF1FE80FF91FEB5EFD4F8181C0
:10028000928133E0880F991F3A95E1F7B0E0A0E042
:1002900044E0B595A795979587954A95D1F702962D
:1002A0009C012F5F3F4F032E000C440B550B281968
:1002B00039094A095B09A4EBB0E00E943309A701A0
:1002C0009601281939094A095B090E941409C901D4
:1002D000FF90EF90DF90CF90BF90AF909F908F9066
:1002E000089590E080E0DCCF833081F028F4813005
:1002F00099F08230A9F008958730A9F08830C9F0CC
:100300008430B1F4809180008F7D03C080918000A3
:100310008F7780938000089584B58F7784BD08958A
:1003200084B58F7DFBCF8091B0008F778093B00034
:1003300008958091B0008F7DF9CF1F93CF93DF9305
:10034000282F30E0F901E255FF4F8491F901E6567C
:10035000FF4FD491F901EA57FF4FC491CC23A9F084
:10036000162F81110E947401EC2FF0E0EE0FFF1F99
:10037000E458FF4FA591B4918FB7F894EC91111107
:1003800008C0D095DE23DC938FBFDF91CF911F9102
:100390000895DE2BF8CFCF93DF9390E0FC01E65673
:1003A000FF4F24918A579F4FFC0184918823D1F0FD
:1003B00090E0880F991FFC01EE58FF4FA591B49172
:1003C000FC01E458FF4FC591D49161110EC09FB755
:1003D000F8948C91E22FE0958E238C932881E22370
:1003E000E8839FBFDF91CF9108958FB7F894EC9188
:1003F000E22BEC938FBFF6CF3FB7F8948091740156
:1004000090917501A0917601B091770126B5A89BD6
:1004100005C02F3F19F00196A11DB11D3FBFBA2F96
:10042000A92F982F8827BC01CD01620F711D811D56
:10043000911D42E0660F771F881F991F4A95D1F7DB
:1004400008958F929F92AF92BF92CF92DF92EF92D8
:10045000FF924B015C010E94FC016B017C010E9438
:10046000FC016C197D098E099F09683E7340810566
:100470009105A8F321E0821A9108A108B10888EE3D
:10048000C80E83E0D81EE11CF11C81149104A10464
:10049000B10429F7FF90EF90DF90CF90BF90AF901D
:1004A0009F908F900895AF92BF92CF92DF92EF927C
:1004B000FF920F931F93CF93DF936C017B018B010E
:1004C000040F151FEB015E01AE18BF08C017D1075E
:1004D00059F06991D601ED91FC910190F081E02DE8
:1004E000C6010995892B79F7C501DF91CF911F913D
:1004F0000F91FF90EF90DF90CF90BF90AF90089555
:10050000FC01538D448D252F30E0842F90E0821B19
:10051000930B541710F0CF96089501970895FC019E
:10052000918D828D981761F0A28DAE0FBF2FB11DF6
:100530005D968C91928D9F5F9F73928F90E008954E
:100540008FEF9FEF0895FC01918D828D981731F008
:10055000828DE80FF11D858D90E008958FEF9FEF5C
:100560000895FC01918D228D892F90E0805C9F4F32
:10057000821B91098F739927089588E791E00E9463
:10058000B10221E0892B09F420E0822F089580E058
:1005900090E0892B29F00E94BD0281110C9400008B
:1005A0000895FC01A48DA80FB92FB11DA35ABF4F08
:1005B0002C91848D90E001968F739927848FA68962
:1005C000B7892C93A089B1898C91837080648C93B6
:1005D000938D848D981306C00288F389E02D808165
:1005E0008F7D80830895EF92FF920F931F93CF9397
:1005F000DF93EC0181E0888F9B8D8C8D98131AC05E
:10060000E889F989808185FF15C09FB7F894EE8944
:10061000FF896083E889F9898081837080648083A1
:100620009FBF81E090E0DF91CF911F910F91FF90EC
:10063000EF900895F62E0B8D10E00F5F1F4F0F7394
:100640001127E02E8C8D8E110CC00FB607FCFACF4F
:10065000E889F989808185FFF5CFCE010E94D1021A
:10066000F1CFEB8DEC0FFD2FF11DE35AFF4FF08220
:100670009FB7F8940B8FEA89FB8980818062CFCF86
:10068000CF93DF93EC01888D8823B9F0AA89BB89C9
:10069000E889F9898C9185FD03C0808186FD0DC0B4
:1006A0000FB607FCF7CF8C9185FFF2CF808185FFD5
:1006B000EDCFCE010E94D102E9CFDF91CF91089515
:1006C00061E085E00E949D0161E086E00E949D015D
:1006D00061E087E00E949D0161E088E00C949D014B
:1006E000FC0101900020E9F73197AF01481B590B3D
:1006F000BC0188E791E00C9453028F929F92AF92D5
:10070000BF920F931F93CF93DF93CDB7DEB7A1971F
:100710000FB6F894DEBF0FBECDBF19A2423008F469
:100720004AE08E010F5D1F4F842E912CB12CA12C1D
:10073000A50194010E944609E62FB901CA01EA30D9
:10074000F4F4E05DD801EE938D01232B242B252BAF
:1007500079F790E080E0109719F0CD010E947003C6
:10076000A1960FB6F894DEBF0FBECDBFDF91CF913B
:100770001F910F91BF90AF909F908F900895E95C6B
:10078000E1CFCF93DF930E947003EC0182E191E00F
:100790000E9470038C0F9D1FDF91CF9108958F925F
:1007A0009F92AF92BF92CF92DF92EF92FF920F9300
:1007B0001F93CF9360E08DE00E949D0183E090E065
:1007C0000197F1F761E08DE00E949D0183E290E0E6
:1007D0000197F1F760E08DE00E949D01E6EAF0E00C
:1007E0006491E2E9F0E0E491F0E0EE0FFF1FE859D8
:1007F000FF4F8591949100E412E42FE030E0462F02
:100800000E945006611571058105910529F06F5F01
:100810007F4F8F4F9F4F9F700E94180A28E23EE73C
:100820004CE05DE30E94CF0A20E030E040E05FE36F
:100830000E94CF0A609367017093680180936901F9
:1008400090936A0185E191E00E947003C090670176
:10085000D0906801E0906901F0906A01C1E020E069
:1008600030E048EC51E4C701B6010E94E4091816D3
:100870000CF4C0E0C0936601A7019601C701B60160
:100880000E943C0B8823E1F080E291E00E9470031B
:100890008CE291E00E94C1036EE170E080E090E0A4
:1008A0000E94210280916601CF911F910F91FF90CC
:1008B000EF90DF90CF90BF90AF909F908F90089572
:1008C00046015701E894B7F82FEF3FEF4FE75FE796
:1008D000C501B4010E943C0B81110DC02FEF3FEF09
:1008E0004FE75FE7C501B4010E94E40918161CF444
:1008F00084E291E0CBCF2FEF3FEF4FE75FE4C701FA
:10090000B6010E94CA0A18161CF488E291E0BECF14
:100910002FEF3FEF4FE75FECC701B6010E94E409FC
:1009200087FDF3CF20E030E0A901C701B6010E94A6
:10093000E40987FF09C06DE288E791E00E94F302B5
:10094000F7FAF094F7F8F0942AE037ED43EA5BE326
:10095000C701B6010E9478094B015C010E94E909B8
:100960006B017C010E94180A9B01AC01C501B40116
:100970000E9477094B015C014AE0C701B6010E9461
:100980007D036EE288E791E00E94F30220E030E010
:1009900040E251E4C501B4010E94CF0A4B015C0161
:1009A0000E94E9096B01F12CE12C4AE0C701B60174
:1009B0000E947D03C701B6010E94180A9B01AC0189
:1009C000C501B4010E94770920E030E040E251E423
:1009D0000E94CF0A0E94E90990E080E04AE00E946C
:1009E0007D0356CF1F920F920FB60F9211242F93B3
:1009F0003F938F939F93AF93BF938091700190919A
:100A00007101A0917201B091730130916F0123E0E7
:100A1000230F2D3758F50196A11DB11D20936F01AD
:100A20008093700190937101A0937201B093730150
:100A30008091740190917501A0917601B091770138
:100A40000196A11DB11D8093740190937501A0932F
:100A50007601B0937701BF91AF919F918F913F91B4
:100A60002F910F900FBE0F901F90189526E8230F1F
:100A70000296A11DB11DD2CF1F920F920FB60F92F9
:100A800011242F933F934F935F936F937F938F9393
:100A90009F93AF93BF93EF93FF9388E791E00E94FA
:100AA000D102FF91EF91BF91AF919F918F917F9173
:100AB0006F915F914F913F912F910F900FBE0F90CB
:100AC0001F9018951F920F920FB60F9211242F931B
:100AD0008F939F93EF93FF93E0918801F0918901A9
:100AE0008081E0918E01F0918F0182FD1BC0908189
:100AF000809191018F5F8F7320919201821741F055
:100B0000E0919101F0E0E858FE4F958F80939101BC
:100B1000FF91EF919F918F912F910F900FBE0F90AA
:100B20001F9018958081F4CF1F920F920FB60F92ED
:100B300011242F933F934F935F936F937F938F93E2
:100B40009F93AF93BF93CF93DF93EF93FF938091E6
:100B50006B01C0913902D0E087FF24C0109285005C
:100B60001092840080916B018F5F80936B01809164
:100B70006B01082E000C990B8C179D0724F48091B3
:100B80006B018C30C4F180918400909185000496B3
:100B900080349C4908F47AC080918400909185004B
:100BA000049676C080916B01082E000C990B8C176F
:100BB0009D07C4F6E0916B018E2FEE0F990BFC019F
:100BC000EE0FFF1FE80FF91FEB5EFD4F808186FFE0
:100BD000C9CFE0916B018E2FEE0F990BFC01EE0F48
:100BE000FF1FE80FF91FEB5EFD4F808160E08F7300
:100BF0000E949D01B7CF2091840030918500E09143
:100C00006B018E2FEE0F990BFC01EE0FFF1FE80F0B
:100C1000F91FEB5EFD4F81819281820F931F9093AC
:100C2000890080938800E0916B018E2FEE0F990B65
:100C3000FC01EE0FFF1FE80FF91FEB5EFD4F8081F7
:100C400086FF11C0E0916B018E2FEE0F990BFC0116
:100C5000EE0FFF1FE80FF91FEB5EFD4F808161E093
:100C60008F730E949D01FF91EF91DF91CF91BF9112
:100C7000AF919F918F917F916F915F914F913F9134
:100C80002F910F900FBE0F901F90189580E49CE954
:100C900090938900809388008FEF80936B01E3CF5E
:100CA000CF92DF92EF92FF920F931F93E82FF92FCD
:100CB00005C0015011092109310961F19081962384
:100CC0009417B9F305C0015011092109310911F137
:100CD000908196239413F7CFC12CD12CE12CF12CC9
:100CE0000AC08FEFC81AD80AE80AF80A0C151D05C1
:100CF0002E053F0579F080818623841791F36C2DB2
:100D00007D2D8E2D9F2D1F910F91FF90EF90DF90E5
:100D1000CF90089560E070E080E090E01F910F9127
:100D2000FF90EF90DF90CF90089510927B0110928A
:100D30007A0188EE93E0A0E0B0E080937C0190938C
:100D40007D01A0937E01B0937F0184E091E09093B8
:100D500079018093780185EC90E0909385018093F0
:100D6000840184EC90E0909387018093860180EC6D
:100D700090E0909389018093880181EC90E09093BA
:100D80008B0180938A0182EC90E090938D01809397
:100D90008C0186EC90E090938F0180938E011092ED
:100DA00091011092920110929301109294018091FE
:100DB00039028C3098F491E0980F90933902809327
:100DC0003A0290E0FC01EE0FFF1FE80FF91FEB5E07
:100DD000FD4F88EB9BE09283818308958FEF809392
:100DE0003A020895789484B5826084BD84B58160A8
:100DF00084BD85B5826085BD85B5816085BD8091E6
:100E00006E00816080936E0010928100809181005D
:100E10008260809381008091810081608093810055
:100E2000809180008160809380008091B100846017
:100E30008093B1008091B00081608093B000809178
:100E40007A00846080937A0080917A008260809337
:100E50007A0080917A00816080937A0080917A0094
:100E6000806880937A001092C10080913A028C30A1
:100E700008F051C061E089E00E94CB0180913A0204
:100E8000282F30E0F901EE0FFF1FE20FF31FEB5E9A
:100E9000FD4F9081907C9960908310923B0210925C
:100EA0003C022CE0622F0E94410B829FB001112472
:100EB00030E020E0AB01420F531FFA01EE0FFF1F9D
:100EC000E40FF51FEB5EFD4F908196FD16C02F5F7E
:100ED0003F4F2C30310571F781110FC01092800007
:100EE00082E0809381001092850010928400B19A74
:100EF00080916F00826080936F00E0913A028E2FA4
:100F000090E0FC01EE0FFF1FE80FF91FEB5EFD4FB5
:100F100080818064808361E08DE00E94CB0160E08D
:100F20008CE00E94CB0160E08BE00E94CB0161E08D
:100F300085E00E94CB0161E086E00E94CB0161E088
:100F400087E00E94CB0161E088E00E94CB01E09144
:100F50008801F091890182E08083E0918401F09121
:100F600085011082E0918601F09187018FEC8083EA
:100F700010929001E0918C01F0918D0186E08083C8
:100F8000E0918A01F0918B01808180618083E09102
:100F90008A01F0918B01808188608083E0918A01D1
:100FA000F0918B01808180688083E0918A01F091CB
:100FB0008B0180818F7D808399EB892E90E0992E23
:100FC00005EA10E021E9E22E20E0F22E30E0C32E07
:100FD00030E0D32E332433944AE5A42EB12CF4010F
:100FE0008491F801C491F701D491DD2321F181119D
:100FF0000E947401ED2FF0E0EE0FFF1FE859FF4F44
:10100000A591B4918C91C823B1F00E9460038FE246
:1010100091E00E94C10364E670E080E090E00E94ED
:101020002102C114D104D9F20E94BD028823B9F271
:101030000E940000D4CF0E94CF03811115C060E050
:1010400085E00E949D0161E086E00E949D0160E0D4
:1010500087E00E949D0161E088E00E949D0184E399
:1010600091E00E94C103DDCF0E9460038FE291E016
:101070000E94C1030E94080110926D0110926C0140
:1010800080916C0190916D018B3591050CF062C0DF
:101090000E94CF03811125C030926E018AE590E055
:1010A0000E948C0080916E0181119FC061E085E0FB
:1010B0000E949D0160E086E00E949D0161E087E062
:1010C0000E949D0160E088E00E949D0182E591E020
:1010D0000E94C10360ED77E080E090E00E94210271
:1010E000C9CF80916C0190916D010E948C006FE0DE
:1010F00070E080E090E00E9421020E9408012C0133
:101100008CE391E00E947003052C000C66087708C0
:101110004AE0C301B20177FE0DC06DE288E791E0BD
:101120000E94F30266277727CB01641975098609A7
:1011300097094AE00E947D0382E191E00E947003DA
:1011400080916C0190916D01049690936D01809354
:101150006C0196CFB0926D01A0926C0180916C01F0
:1011600090916D0197FD3EC00E94CF03882309F442
:1011700093CF80916C0190916D010E948C006FE083
:1011800070E080E090E00E9421020E9408012C01A2
:101190008CE391E00E947003052C000C6608770830
:1011A0004AE0C301B20177FE0DC06DE288E791E02D
:1011B0000E94F30266277727CB0164197509860917
:1011C00097094AE00E947D0382E191E00E9470034A
:1011D00080916C0190916D01049790936D018093C3
:1011E0006C01BCCF10926E015DCF86E591E00E944C
:1011F000C10381E691E00E94C10360E085E00E94A6
:101200009D0161E086E00E949D0162E370E080E064
:1012100090E00E94210261E087E00E949D0160E071
:1012200088E00E949D01FDCE052E97FB1EF40094E0
:101230000E942B0957FD07D00E94460907FC03D0E6
:101240004EF40C942B0950954095309521953F4FC5
:101250004F4F5F4F089590958095709561957F4FA2
:101260008F4F9F4F08950E946809A59F900DB49FCE
:10127000900DA49F800D911D11240895B7FF0C942B
:1012800033090E943309821B930B0895A1E21A2EA1
:10129000AA1BBB1BFD010DC0AA1FBB1FEE1FFF1F1A
:1012A000A217B307E407F50720F0A21BB30BE40B6A
:1012B000F50B661F771F881F991F1A9469F76095B1
:1012C0007095809590959B01AC01BD01CF0108956B
:1012D000A29FB001B39FC001A39F700D811D112477
:1012E000911DB29F700D811D1124911D08955058BC
:1012F000BB27AA270E948F090C94900A0E94820A99
:1013000038F00E94890A20F039F49F3F19F426F43E
:101310000C947F0A0EF4E095E7FB0C94790AE92F10
:101320000E94A10A58F3BA1762077307840795074A
:1013300020F079F4A6F50C94C30A0EF4E0950B2E78
:10134000BA2FA02D0B01B90190010C01CA01A00117
:101350001124FF27591B99F0593F50F4503E68F172
:101360001A16F040A22F232F342F4427585FF3CFB3
:10137000469537952795A795F0405395C9F77EF484
:101380001F16BA0B620B730B840BBAF09150A1F0CD
:10139000FF0FBB1F661F771F881FC2F70EC0BA0F53
:1013A000621F731F841F48F4879577956795B795DB
:1013B000F7959E3F08F0B0CF9395880F08F09927D6
:1013C000EE0F9795879508950E94550A08F481E0DD
:1013D00008950E94A90A88F09F5798F0B92F99277D
:1013E000B751B0F0E1F0660F771F881F991F1AF010
:1013F000BA95C9F714C0B13091F00E94C30AB1E0A8
:1014000008950C94C30A672F782F8827B85F39F0A6
:10141000B93FCCF3869577956795B395D9F73EF4A8
:1014200090958095709561957F4F8F4F9F4F089550
:10143000E89409C097FB3EF490958095709561956E
:101440007F4F8F4F9F4F9923A9F0F92F96E9BB2724
:101450009395F695879577956795B795F111F8CFA0
:10146000FAF4BB0F11F460FF1BC06F5F7F4F8F4F0B
:101470009F4F16C0882311F096E911C0772321F001
:101480009EE8872F762F05C0662371F096E8862F99
:1014900070E060E02AF09A95660F771F881FDAF7F0
:1014A000880F9695879597F90895990F0008550F1D
:1014B000AA0BE0E8FEEF16161706E807F907C0F0DA
:1014C00012161306E407F50798F0621B730B840BE2
:1014D000950B39F40A2661F0232B242B252B21F4BC
:1014E00008950A2609F4A140A6958FEF811D811D5C
:1014F000089597F99F6780E870E060E008959FEF96
:1015000080EC089500240A9416161706180609069A
:10151000089500240A941216130614060506089569
:10152000092E0394000C11F4882352F0BB0F40F4F1
:10153000BF2B11F460FF04C06F5F7F4F8F4F9F4F31
:10154000089557FD9058440F551F59F05F3F71F0B3
:101550004795880F97FB991F61F09F3F79F087951A
:101560000895121613061406551FF2CF4695F1DFA3
:1015700008C0161617061806991FF1CF8695710533
:10158000610508940895E894BB2766277727CB0167
:1015900097F908950E94550A08F48FEF08950E9464
:1015A000E20A0C94900A0E94820A38F00E94890A8A
:1015B00020F0952311F00C94790A0C947F0A1124E1
:1015C0000C94C40A0E94A10A70F3959FC1F3950F71
:1015D00050E0551F629FF001729FBB27F00DB11DB7
:1015E000639FAA27F00DB11DAA1F649F6627B00D47
:1015F000A11D661F829F2227B00DA11D621F739F30
:10160000B00DA11D621F839FA00D611D221F749F3D
:101610003327A00D611D231F849F600D211D822F84
:10162000762F6A2F11249F5750409AF0F1F08823AB
:101630004AF0EE0FFF1FBB1F661F771F881F9150D8
:101640005040A9F79E3F510580F00C94790A0C9404
:10165000C40A5F3FE4F3983ED4F386957795679587
:10166000B795F795E7959F5FC1F7FE2B880F911D02
:101670009695879597F908950E94550A880B990BBE
:101680000895991B79E004C0991F961708F0961BDE
:10169000881F7A95C9F780950895EE0FFF1F059072
:1016A000F491E02D0994F894FFCF00000000F302BC
:1016B000530280024003B1028F02A3020D0A0044CC
:1016C000697374616E63653A20006E616E00696EC5
:1016D00066006F766600636D0053746F7000466F2E
:1016E00072776172640043757272656E742053651F
:1016F00072766F20416E676C653A20005265760005
:10170000666F756E642070617468005475726E0047
:107E0000112484B714BE81FFF0D085E080938100F7
:107E100082E08093C00088E18093C10086E0809377
:107E2000C20080E18093C4008EE0C9D0259A86E02C
:107E300020E33CEF91E0309385002093840096BBD3
:107E4000B09BFECF1D9AA8958150A9F7CC24DD24C4
:107E500088248394B5E0AB2EA1E19A2EF3E0BF2EE7
:107E6000A2D0813461F49FD0082FAFD0023811F036
:107E7000013811F484E001C083E08DD089C08234E0
:107E800011F484E103C0853419F485E0A6D080C0E4
:107E9000853579F488D0E82EFF2485D0082F10E0AE
:107EA000102F00270E291F29000F111F8ED06801E7
:107EB0006FC0863521F484E090D080E0DECF843638
:107EC00009F040C070D06FD0082F6DD080E0C81688
:107ED00080E7D80618F4F601B7BEE895C0E0D1E017
:107EE00062D089930C17E1F7F0E0CF16F0E7DF06D8
:107EF00018F0F601B7BEE89568D007B600FCFDCFD4
:107F0000A601A0E0B1E02C9130E011968C91119780
:107F100090E0982F8827822B932B1296FA010C0160
:107F200087BEE89511244E5F5F4FF1E0A038BF0790
:107F300051F7F601A7BEE89507B600FCFDCF97BE46
:107F4000E89526C08437B1F42ED02DD0F82E2BD052
:107F50003CD0F601EF2C8F010F5F1F4F84911BD097
:107F6000EA94F801C1F70894C11CD11CFA94CF0C13
:107F7000D11C0EC0853739F428D08EE10CD085E9AC
:107F80000AD08FE07ACF813511F488E018D01DD067
:107F900080E101D065CF982F8091C00085FFFCCF94
:107FA0009093C60008958091C00087FFFCCF809118
:107FB000C00084FD01C0A8958091C6000895E0E648
:107FC000F0E098E1908380830895EDDF803219F02E
:107FD00088E0F5DFFFCF84E1DECF1F93182FE3DFCA
:107FE0001150E9F7F2DF1F91089580E0E8DFEE27F6
:047FF000FF270994CA
:027FFE00040479
:00000001FF
