:100000000C945D000C9485000C9485000C94850084
:100010000C9485000C9485000C9485000C9485004C
:100020000C9485000C9485000C9485000C9485003C
:100030000C9485000C9485000C9485000C9485002C
:100040000C9468020C9485000C94D8020C94B202B3
:100050000C9485000C9485000C9485000C9485000C
:100060000C9485000C9485000000000024002700FB
:100070002A0000000000250028002B0004040404CE
:100080000404040402020202020203030303030342
:10009000010204081020408001020408102001021F
:1000A00004081020000000080002010000030407FB
:1000B0000000000000000000E50311241FBECFEF88
:1000C000D8E0DEBFCDBF11E0A0E0B1E0E4E3F8E0AE
:1000D00002C005900D92A032B107D9F721E0A0E24D
:1000E000B1E001C01D92A63CB207E1F710E0CDE5FA
:1000F000D0E004C02197FE010E941204CC35D10744
:10010000C9F70E940A030C9418040C94000090E0B4
:10011000FC01EC55FF4F2491FC01E057FF4F349157
:10012000FC01E458FF4FE491EE23C9F0222339F09B
:10013000233001F1A8F4213019F1223029F1F0E047
:10014000EE0FFF1FEE58FF4FA591B4918FB7F894B3
:10015000EC91611126C030953E233C938FBF0895EA
:100160002730A9F02830C9F0243049F78091800069
:100170008F7D03C0809180008F7780938000DFCFD8
:1001800084B58F7784BDDBCF84B58F7DFBCF809125
:10019000B0008F778093B000D2CF8091B0008F7D78
:1001A000F9CF3E2BDACFCF93DF9390E0FC01E057FD
:1001B000FF4F249184589F4FFC0184918823D1F0F4
:1001C00090E0880F991FFC01E859FF4FA591B49169
:1001D000FC01EE58FF4FC591D491623071F49FB786
:1001E000F8943C91822F809583238C93E8812E2B69
:1001F00028839FBFDF91CF9108958FB7F894EC913A
:100200002E2B2C938FBFF6CF3FB7F8948091C2016D
:100210009091C301A091C401B091C50126B5A89BDE
:1002200005C02F3F19F00196A11DB11D3FBFBA2F88
:10023000A92F982F8827BC01CD01620F711D811D48
:10024000911D42E0660F771F881F991F4A95D1F7CD
:1002500008958F929F92AF92BF92CF92DF92EF92CA
:10026000FF924B015C010E9404016B017C010E9422
:1002700004016C197D098E099F09683E7340810550
:100280009105A8F321E0821A9108A108B10888EE2F
:10029000C80E83E0D81EE11CF11C81149104A10456
:1002A000B10429F7FF90EF90DF90CF90BF90AF900F
:1002B0009F908F900895AF92BF92CF92DF92EF926E
:1002C000FF920F931F93CF93DF936C017B018B0100
:1002D000040F151FEB015E01AE18BF08C017D10750
:1002E00059F06991D601ED91FC910190F081E02DDA
:1002F000C6010995892B79F7C501DF91CF911F912F
:100300000F91FF90EF90DF90CF90BF90AF90089546
:10031000FC01538D448D252F30E0842F90E0821B0B
:10032000930B541710F0CF96089501970895FC0190
:10033000918D828D981761F0A28DAE0FBF2FB11DE8
:100340005D968C91928D9F5F9F73928F90E0089540
:100350008FEF9FEF0895FC01918D828D981731F0FA
:10036000828DE80FF11D858D90E008958FEF9FEF4E
:100370000895FC01918D228D892F90E0805C9F4F24
:10038000821B91098F739927089580E291E00E9462
:10039000B90121E0892B09F420E0822F089580E043
:1003A00090E0892B29F00E94C50181110C94000076
:1003B0000895FC01A48DA80FB92FB11DA35ABF4FFA
:1003C0002C91848D90E001968F739927848FA68954
:1003D000B7892C93A089B1898C91837080648C93A8
:1003E000938D848D981306C00288F389E02D808157
:1003F0008F7D80830895EF92FF920F931F93CF9389
:10040000DF93EC0181E0888F9B8D8C8D98131AC04F
:10041000E889F989808185FF15C09FB7F894EE8936
:10042000FF896083E889F989808183708064808393
:100430009FBF81E090E0DF91CF911F910F91FF90DE
:10044000EF900895F62E0B8D10E00F5F1F4F0F7386
:100450001127E02E8C8D8E110CC00FB607FCFACF41
:10046000E889F989808185FFF5CFCE010E94D90105
:10047000F1CFEB8DEC0FFD2FF11DE35AFF4FF08212
:100480009FB7F8940B8FEA89FB8980818062CFCF78
:10049000CF93DF93EC01888D8823B9F0AA89BB89BB
:1004A000E889F9898C9185FD03C0808186FD0DC0A6
:1004B0000FB607FCF7CF8C9185FFF2CF808185FFC7
:1004C000EDCFCE010E94D901E9CFDF91CF91089500
:1004D0001F920F920FB60F9211242F933F938F9379
:1004E0009F93AF93BF938091BE019091BF01A09164
:1004F000C001B091C1013091BD0123E0230F2D3720
:1005000058F50196A11DB11D2093BD018093BE0138
:100510009093BF01A093C001B093C1018091C2012B
:100520009091C301A091C401B091C5010196A11D94
:10053000B11D8093C2019093C301A093C401B093F5
:10054000C501BF91AF919F918F913F912F910F90D6
:100550000FBE0F901F90189526E8230F0296A11D3D
:10056000B11DD2CF1F920F920FB60F9211242F936D
:100570003F934F935F936F937F938F939F93AF932B
:10058000BF93EF93FF9380E291E00E94D901FF9126
:10059000EF91BF91AF919F918F917F916F915F91FB
:1005A0004F913F912F910F900FBE0F901F90189574
:1005B0001F920F920FB60F9211242F938F939F9338
:1005C000EF93FF93E0913001F09131018081E09150
:1005D0003601F091370182FD1BC090818091390175
:1005E0008F5F8F7320913A01821741F0E0913901BA
:1005F000F0E0E05EFE4F958F80933901FF91EF911F
:100600009F918F912F910F900FBE0F901F90189573
:100610008081F4CF789484B5826084BD84B5816094
:1006200084BD85B5826085BD85B5816085BD8091BD
:100630006E00816080936E00109281008091810035
:10064000826080938100809181008160809381002D
:10065000809180008160809380008091B1008460EF
:100660008093B1008091B00081608093B000809150
:100670007A00846080937A0080917A00826080930F
:100680007A0080917A00816080937A0080917A006C
:10069000806880937A001092C10061E085E00E943A
:1006A000D30061E086E00E94D30061E087E00E9411
:1006B000D30061E088E00E94D30061E08DE00E94F9
:1006C000D30062E082E00E94D30062E083E00E94F7
:1006D000D30061E085E00E94870061E086E00E942F
:1006E000870061E087E00E94870061E088E00E9467
:1006F0008700E0913001F091310182E08083E09148
:100700002C01F0912D011082E0912E01F0912F012A
:100710008FEC808310923801E0913401F091350123
:1007200086E08083E0913201F09133018081806125
:100730008083E0913201F091330180818860808371
:10074000E0913201F0913301808180688083E091F3
:100750003201F091330180818F7D808349E050E048
:1007600062E171E080E291E00E945B0142E050E0D2
:100770006CE171E080E291E00E945B0164EF71E066
:1007800080E090E00E942901C0E0D0E061E085E0D7
:100790000E94870060E086E00E94870062E370E0CC
:1007A00080E090E00E94290160E087E00E948700DD
:1007B00061E088E00E948700209741F30E94C50114
:1007C000882321F30E940000E1CFE0E2F1E01382F0
:1007D000128288EE93E0A0E0B0E084839583A68344
:1007E000B78384E091E09183808385EC90E09587E6
:1007F000848784EC90E09787868780EC90E0918BEB
:10080000808B81EC90E0938B828B82EC90E0958BD7
:10081000848B86EC90E0978B868B118E128E138ED4
:10082000148E0895EE0FFF1F0590F491E02D0994AA
:04083000F894FFCF6A
:1008340000000000FB015B0188014802B901970137
:10084400AB0157454C4C20434F4D45000D0A000069
:00000001FF
